{
    "contractName": "AVBulkDeploy",
    "abi": [
        {
            "inputs": [],
            "stateMutability": "nonpayable",
            "type": "constructor"
        },
        {
            "anonymous": false,
            "inputs": [
                {
                    "indexed": true,
                    "internalType": "address",
                    "name": "account",
                    "type": "address"
                },
                {
                    "indexed": true,
                    "internalType": "address",
                    "name": "operator",
                    "type": "address"
                },
                {
                    "indexed": false,
                    "internalType": "bool",
                    "name": "approved",
                    "type": "bool"
                }
            ],
            "name": "ApprovalForAll",
            "type": "event"
        },
        {
            "anonymous": false,
            "inputs": [
                {
                    "indexed": true,
                    "internalType": "address",
                    "name": "previousOwner",
                    "type": "address"
                },
                {
                    "indexed": true,
                    "internalType": "address",
                    "name": "newOwner",
                    "type": "address"
                }
            ],
            "name": "OwnershipTransferred",
            "type": "event"
        },
        {
            "anonymous": false,
            "inputs": [
                {
                    "indexed": true,
                    "internalType": "address",
                    "name": "operator",
                    "type": "address"
                },
                {
                    "indexed": true,
                    "internalType": "address",
                    "name": "from",
                    "type": "address"
                },
                {
                    "indexed": true,
                    "internalType": "address",
                    "name": "to",
                    "type": "address"
                },
                {
                    "indexed": false,
                    "internalType": "uint256[]",
                    "name": "ids",
                    "type": "uint256[]"
                },
                {
                    "indexed": false,
                    "internalType": "uint256[]",
                    "name": "values",
                    "type": "uint256[]"
                }
            ],
            "name": "TransferBatch",
            "type": "event"
        },
        {
            "anonymous": false,
            "inputs": [
                {
                    "indexed": true,
                    "internalType": "address",
                    "name": "operator",
                    "type": "address"
                },
                {
                    "indexed": true,
                    "internalType": "address",
                    "name": "from",
                    "type": "address"
                },
                {
                    "indexed": true,
                    "internalType": "address",
                    "name": "to",
                    "type": "address"
                },
                {
                    "indexed": false,
                    "internalType": "uint256",
                    "name": "id",
                    "type": "uint256"
                },
                {
                    "indexed": false,
                    "internalType": "uint256",
                    "name": "value",
                    "type": "uint256"
                }
            ],
            "name": "TransferSingle",
            "type": "event"
        },
        {
            "anonymous": false,
            "inputs": [
                {
                    "indexed": false,
                    "internalType": "string",
                    "name": "value",
                    "type": "string"
                },
                {
                    "indexed": true,
                    "internalType": "uint256",
                    "name": "id",
                    "type": "uint256"
                }
            ],
            "name": "URI",
            "type": "event"
        },
        {
            "inputs": [
                {
                    "internalType": "address",
                    "name": "account",
                    "type": "address"
                },
                {
                    "internalType": "uint256",
                    "name": "id",
                    "type": "uint256"
                }
            ],
            "name": "balanceOf",
            "outputs": [
                {
                    "internalType": "uint256",
                    "name": "",
                    "type": "uint256"
                }
            ],
            "stateMutability": "view",
            "type": "function"
        },
        {
            "inputs": [
                {
                    "internalType": "address[]",
                    "name": "accounts",
                    "type": "address[]"
                },
                {
                    "internalType": "uint256[]",
                    "name": "ids",
                    "type": "uint256[]"
                }
            ],
            "name": "balanceOfBatch",
            "outputs": [
                {
                    "internalType": "uint256[]",
                    "name": "",
                    "type": "uint256[]"
                }
            ],
            "stateMutability": "view",
            "type": "function"
        },
        {
            "inputs": [
                {
                    "internalType": "address",
                    "name": "account",
                    "type": "address"
                },
                {
                    "internalType": "address",
                    "name": "operator",
                    "type": "address"
                }
            ],
            "name": "isApprovedForAll",
            "outputs": [
                {
                    "internalType": "bool",
                    "name": "",
                    "type": "bool"
                }
            ],
            "stateMutability": "view",
            "type": "function"
        },
        {
            "inputs": [
                {
                    "internalType": "uint256",
                    "name": "id",
                    "type": "uint256"
                },
                {
                    "internalType": "uint256",
                    "name": "amount",
                    "type": "uint256"
                }
            ],
            "name": "mint",
            "outputs": [],
            "stateMutability": "nonpayable",
            "type": "function"
        },
        {
            "inputs": [
                {
                    "internalType": "uint256[]",
                    "name": "ids",
                    "type": "uint256[]"
                },
                {
                    "internalType": "uint256[]",
                    "name": "amounts",
                    "type": "uint256[]"
                }
            ],
            "name": "mintBatch",
            "outputs": [],
            "stateMutability": "nonpayable",
            "type": "function"
        },
        {
            "inputs": [],
            "name": "name",
            "outputs": [
                {
                    "internalType": "string",
                    "name": "",
                    "type": "string"
                }
            ],
            "stateMutability": "view",
            "type": "function"
        },
        {
            "inputs": [],
            "name": "owner",
            "outputs": [
                {
                    "internalType": "address",
                    "name": "",
                    "type": "address"
                }
            ],
            "stateMutability": "view",
            "type": "function"
        },
        {
            "inputs": [],
            "name": "renounceOwnership",
            "outputs": [],
            "stateMutability": "nonpayable",
            "type": "function"
        },
        {
            "inputs": [
                {
                    "internalType": "address",
                    "name": "from",
                    "type": "address"
                },
                {
                    "internalType": "address",
                    "name": "to",
                    "type": "address"
                },
                {
                    "internalType": "uint256[]",
                    "name": "ids",
                    "type": "uint256[]"
                },
                {
                    "internalType": "uint256[]",
                    "name": "amounts",
                    "type": "uint256[]"
                },
                {
                    "internalType": "bytes",
                    "name": "data",
                    "type": "bytes"
                }
            ],
            "name": "safeBatchTransferFrom",
            "outputs": [],
            "stateMutability": "nonpayable",
            "type": "function"
        },
        {
            "inputs": [
                {
                    "internalType": "address",
                    "name": "from",
                    "type": "address"
                },
                {
                    "internalType": "address",
                    "name": "to",
                    "type": "address"
                },
                {
                    "internalType": "uint256",
                    "name": "id",
                    "type": "uint256"
                },
                {
                    "internalType": "uint256",
                    "name": "amount",
                    "type": "uint256"
                },
                {
                    "internalType": "bytes",
                    "name": "data",
                    "type": "bytes"
                }
            ],
            "name": "safeTransferFrom",
            "outputs": [],
            "stateMutability": "nonpayable",
            "type": "function"
        },
        {
            "inputs": [
                {
                    "internalType": "address",
                    "name": "operator",
                    "type": "address"
                },
                {
                    "internalType": "bool",
                    "name": "approved",
                    "type": "bool"
                }
            ],
            "name": "setApprovalForAll",
            "outputs": [],
            "stateMutability": "nonpayable",
            "type": "function"
        },
        {
            "inputs": [
                {
                    "internalType": "string",
                    "name": "_name",
                    "type": "string"
                }
            ],
            "name": "setName",
            "outputs": [],
            "stateMutability": "nonpayable",
            "type": "function"
        },
        {
            "inputs": [
                {
                    "internalType": "string",
                    "name": "_newuri",
                    "type": "string"
                }
            ],
            "name": "setURI",
            "outputs": [],
            "stateMutability": "nonpayable",
            "type": "function"
        },
        {
            "inputs": [
                {
                    "internalType": "bytes4",
                    "name": "interfaceId",
                    "type": "bytes4"
                }
            ],
            "name": "supportsInterface",
            "outputs": [
                {
                    "internalType": "bool",
                    "name": "",
                    "type": "bool"
                }
            ],
            "stateMutability": "view",
            "type": "function"
        },
        {
            "inputs": [
                {
                    "internalType": "address",
                    "name": "newOwner",
                    "type": "address"
                }
            ],
            "name": "transferOwnership",
            "outputs": [],
            "stateMutability": "nonpayable",
            "type": "function"
        },
        {
            "inputs": [
                {
                    "internalType": "uint256",
                    "name": "",
                    "type": "uint256"
                }
            ],
            "name": "uri",
            "outputs": [
                {
                    "internalType": "string",
                    "name": "",
                    "type": "string"
                }
            ],
            "stateMutability": "view",
            "type": "function"
        }
    ],
    "bytecode": "60806040523480156200001157600080fd5b506040518060600160405280603f815260200162001dfc603f9139620000373362000088565b6200004281620000d8565b5060408051808201909152601e81527f41707076656e742042756c6b204465706c6f7920436f6c6c656374696f6e000060208201526200008290620000ea565b620002d4565b600080546001600160a01b038381166001600160a01b0319831681178455604051919092169283917f8be0079c531659141344cd1fd0a4f28419497f9722a3daafe3b4186f6b6457e09190a35050565b6003620000e6828262000208565b5050565b620000f462000102565b6005620000e6828262000208565b6000546001600160a01b03163314620001615760405162461bcd60e51b815260206004820181905260248201527f4f776e61626c653a2063616c6c6572206973206e6f7420746865206f776e6572604482015260640160405180910390fd5b565b634e487b7160e01b600052604160045260246000fd5b600181811c908216806200018e57607f821691505b602082108103620001af57634e487b7160e01b600052602260045260246000fd5b50919050565b601f8211156200020357600081815260208120601f850160051c81016020861015620001de5750805b601f850160051c820191505b81811015620001ff57828155600101620001ea565b5050505b505050565b81516001600160401b0381111562000224576200022462000163565b6200023c8162000235845462000179565b84620001b5565b602080601f8311600181146200027457600084156200025b5750858301515b600019600386901b1c1916600185901b178555620001ff565b600085815260208120601f198616915b82811015620002a55788860151825594840194600190910190840162000284565b5085821015620002c45787850151600019600388901b60f8161c191681555b5050505050600190811b01905550565b611b1880620002e46000396000f3fe608060405234801561001057600080fd5b50600436106100ff5760003560e01c8063715018a611610097578063d351cfdc11610066578063d351cfdc14610219578063e985e9c51461022c578063f242432a14610268578063f2fde38b1461027b57600080fd5b8063715018a6146101d05780638da5cb5b146101d8578063a22cb465146101f3578063c47f00271461020657600080fd5b80630e89341c116100d35780630e89341c146101775780631b2ef1ca1461018a5780632eb2c2d61461019d5780634e1273f4146101b057600080fd5b8062fdd58e1461010457806301ffc9a71461012a57806302fe53051461014d57806306fdde0314610162575b600080fd5b610117610112366004611065565b61028e565b6040519081526020015b60405180910390f35b61013d6101383660046110a5565b610329565b6040519015158152602001610121565b61016061015b36600461116a565b610379565b005b61016a61038d565b6040516101219190611201565b61016a610185366004611214565b61041b565b61016061019836600461122d565b6104af565b6101606101ab366004611304565b6104d6565b6101c36101be3660046113ae565b610522565b60405161012191906114b4565b61016061064c565b6000546040516001600160a01b039091168152602001610121565b6101606102013660046114c7565b610660565b61016061021436600461116a565b61066b565b610160610227366004611503565b61067f565b61013d61023a366004611550565b6001600160a01b03918216600090815260026020908152604080832093909416825291909152205460ff1690565b610160610276366004611583565b6106a2565b6101606102893660046115e8565b6106e7565b60006001600160a01b0383166102fe5760405162461bcd60e51b815260206004820152602a60248201527f455243313135353a2061646472657373207a65726f206973206e6f742061207660448201526930b634b21037bbb732b960b11b60648201526084015b60405180910390fd5b5060008181526001602090815260408083206001600160a01b03861684529091529020545b92915050565b60006001600160e01b03198216636cdb3d1360e11b148061035a57506001600160e01b031982166303a24d0760e21b145b8061032357506301ffc9a760e01b6001600160e01b0319831614610323565b61038161075d565b61038a816107b7565b50565b6005805461039a90611603565b80601f01602080910402602001604051908101604052809291908181526020018280546103c690611603565b80156104135780601f106103e857610100808354040283529160200191610413565b820191906000526020600020905b8154815290600101906020018083116103f657829003601f168201915b505050505081565b60606003805461042a90611603565b80601f016020809104026020016040519081016040528092919081815260200182805461045690611603565b80156104a35780601f10610478576101008083540402835291602001916104a3565b820191906000526020600020905b81548152906001019060200180831161048657829003601f168201915b50505050509050919050565b6104b761075d565b6104d2338383604051806020016040528060008152506107c3565b5050565b6001600160a01b0385163314806104f257506104f2853361023a565b61050e5760405162461bcd60e51b81526004016102f59061163d565b61051b858585858561089f565b5050505050565b606081518351146105875760405162461bcd60e51b815260206004820152602960248201527f455243313135353a206163636f756e747320616e6420696473206c656e677468604482015268040dad2e6dac2e8c6d60bb1b60648201526084016102f5565b6000835167ffffffffffffffff8111156105a3576105a36110c9565b6040519080825280602002602001820160405280156105cc578160200160208202803683370190505b50905060005b8451811015610644576106178582815181106105f0576105f061168b565b602002602001015185838151811061060a5761060a61168b565b602002602001015161028e565b8282815181106106295761062961168b565b602090810291909101015261063d816116b7565b90506105d2565b509392505050565b61065461075d565b61065e6000610a3e565b565b6104d2338383610a8e565b61067361075d565b60056104d2828261171b565b61068761075d565b6104d233838360405180602001604052806000815250610b6e565b6001600160a01b0385163314806106be57506106be853361023a565b6106da5760405162461bcd60e51b81526004016102f59061163d565b61051b8585858585610cba565b6106ef61075d565b6001600160a01b0381166107545760405162461bcd60e51b815260206004820152602660248201527f4f776e61626c653a206e6577206f776e657220697320746865207a65726f206160448201526564647265737360d01b60648201526084016102f5565b61038a81610a3e565b6000546001600160a01b0316331461065e5760405162461bcd60e51b815260206004820181905260248201527f4f776e61626c653a2063616c6c6572206973206e6f7420746865206f776e657260448201526064016102f5565b60036104d2828261171b565b6001600160a01b0384166107e95760405162461bcd60e51b81526004016102f5906117db565b3360006107f585610de8565b9050600061080285610de8565b905060008681526001602090815260408083206001600160a01b038b1684529091528120805487929061083690849061181c565b909155505060408051878152602081018790526001600160a01b03808a1692600092918716917fc3d58168c5ae7397731d063d5bbf3d657854427343f4c083240f7aacaa2d0f62910160405180910390a461089683600089898989610e33565b50505050505050565b81518351146108c05760405162461bcd60e51b81526004016102f59061182f565b6001600160a01b0384166108e65760405162461bcd60e51b81526004016102f590611877565b3360005b84518110156109d05760008582815181106109075761090761168b565b6020026020010151905060008583815181106109255761092561168b565b60209081029190910181015160008481526001835260408082206001600160a01b038e1683529093529190912054909150818110156109765760405162461bcd60e51b81526004016102f5906118bc565b60008381526001602090815260408083206001600160a01b038e8116855292528083208585039055908b168252812080548492906109b590849061181c565b92505081905550505050806109c9906116b7565b90506108ea565b50846001600160a01b0316866001600160a01b0316826001600160a01b03167f4a39dc06d4c0dbc64b70af90fd698a233a518aa5d07e595d983b8c0526c8f7fb8787604051610a20929190611906565b60405180910390a4610a36818787878787610f8e565b505050505050565b600080546001600160a01b038381166001600160a01b0319831681178455604051919092169283917f8be0079c531659141344cd1fd0a4f28419497f9722a3daafe3b4186f6b6457e09190a35050565b816001600160a01b0316836001600160a01b031603610b015760405162461bcd60e51b815260206004820152602960248201527f455243313135353a2073657474696e6720617070726f76616c20737461747573604482015268103337b91039b2b63360b91b60648201526084016102f5565b6001600160a01b03838116600081815260026020908152604080832094871680845294825291829020805460ff191686151590811790915591519182527f17307eab39ab6107e8899845ad3d59bd9653f200f220920489ca2b5937696c31910160405180910390a3505050565b6001600160a01b038416610b945760405162461bcd60e51b81526004016102f5906117db565b8151835114610bb55760405162461bcd60e51b81526004016102f59061182f565b3360005b8451811015610c5257838181518110610bd457610bd461168b565b602002602001015160016000878481518110610bf257610bf261168b565b602002602001015181526020019081526020016000206000886001600160a01b03166001600160a01b031681526020019081526020016000206000828254610c3a919061181c565b90915550819050610c4a816116b7565b915050610bb9565b50846001600160a01b031660006001600160a01b0316826001600160a01b03167f4a39dc06d4c0dbc64b70af90fd698a233a518aa5d07e595d983b8c0526c8f7fb8787604051610ca3929190611906565b60405180910390a461051b81600087878787610f8e565b6001600160a01b038416610ce05760405162461bcd60e51b81526004016102f590611877565b336000610cec85610de8565b90506000610cf985610de8565b905060008681526001602090815260408083206001600160a01b038c16845290915290205485811015610d3e5760405162461bcd60e51b81526004016102f5906118bc565b60008781526001602090815260408083206001600160a01b038d8116855292528083208985039055908a16825281208054889290610d7d90849061181c565b909155505060408051888152602081018890526001600160a01b03808b16928c821692918816917fc3d58168c5ae7397731d063d5bbf3d657854427343f4c083240f7aacaa2d0f62910160405180910390a4610ddd848a8a8a8a8a610e33565b505050505050505050565b60408051600180825281830190925260609160009190602080830190803683370190505090508281600081518110610e2257610e2261168b565b602090810291909101015292915050565b6001600160a01b0384163b15610a365760405163f23a6e6160e01b81526001600160a01b0385169063f23a6e6190610e779089908990889088908890600401611934565b6020604051808303816000875af1925050508015610eb2575060408051601f3d908101601f19168201909252610eaf91810190611979565b60015b610f5e57610ebe611996565b806308c379a003610ef75750610ed26119b2565b80610edd5750610ef9565b8060405162461bcd60e51b81526004016102f59190611201565b505b60405162461bcd60e51b815260206004820152603460248201527f455243313135353a207472616e7366657220746f206e6f6e2d455243313135356044820152732932b1b2b4bb32b91034b6b83632b6b2b73a32b960611b60648201526084016102f5565b6001600160e01b0319811663f23a6e6160e01b146108965760405162461bcd60e51b81526004016102f590611a3c565b6001600160a01b0384163b15610a365760405163bc197c8160e01b81526001600160a01b0385169063bc197c8190610fd29089908990889088908890600401611a84565b6020604051808303816000875af192505050801561100d575060408051601f3d908101601f1916820190925261100a91810190611979565b60015b61101957610ebe611996565b6001600160e01b0319811663bc197c8160e01b146108965760405162461bcd60e51b81526004016102f590611a3c565b80356001600160a01b038116811461106057600080fd5b919050565b6000806040838503121561107857600080fd5b61108183611049565b946020939093013593505050565b6001600160e01b03198116811461038a57600080fd5b6000602082840312156110b757600080fd5b81356110c28161108f565b9392505050565b634e487b7160e01b600052604160045260246000fd5b601f8201601f1916810167ffffffffffffffff81118282101715611105576111056110c9565b6040525050565b600067ffffffffffffffff831115611126576111266110c9565b60405161113d601f8501601f1916602001826110df565b80915083815284848401111561115257600080fd5b83836020830137600060208583010152509392505050565b60006020828403121561117c57600080fd5b813567ffffffffffffffff81111561119357600080fd5b8201601f810184136111a457600080fd5b6111b38482356020840161110c565b949350505050565b6000815180845260005b818110156111e1576020818501810151868301820152016111c5565b506000602082860101526020601f19601f83011685010191505092915050565b6020815260006110c260208301846111bb565b60006020828403121561122657600080fd5b5035919050565b6000806040838503121561124057600080fd5b50508035926020909101359150565b600067ffffffffffffffff821115611269576112696110c9565b5060051b60200190565b600082601f83011261128457600080fd5b813560206112918261124f565b60405161129e82826110df565b83815260059390931b85018201928281019150868411156112be57600080fd5b8286015b848110156112d957803583529183019183016112c2565b509695505050505050565b600082601f8301126112f557600080fd5b6110c28383356020850161110c565b600080600080600060a0868803121561131c57600080fd5b61132586611049565b945061133360208701611049565b9350604086013567ffffffffffffffff8082111561135057600080fd5b61135c89838a01611273565b9450606088013591508082111561137257600080fd5b61137e89838a01611273565b9350608088013591508082111561139457600080fd5b506113a1888289016112e4565b9150509295509295909350565b600080604083850312156113c157600080fd5b823567ffffffffffffffff808211156113d957600080fd5b818501915085601f8301126113ed57600080fd5b813560206113fa8261124f565b60405161140782826110df565b83815260059390931b850182019282810191508984111561142757600080fd5b948201945b8386101561144c5761143d86611049565b8252948201949082019061142c565b9650508601359250508082111561146257600080fd5b5061146f85828601611273565b9150509250929050565b600081518084526020808501945080840160005b838110156114a95781518752958201959082019060010161148d565b509495945050505050565b6020815260006110c26020830184611479565b600080604083850312156114da57600080fd5b6114e383611049565b9150602083013580151581146114f857600080fd5b809150509250929050565b6000806040838503121561151657600080fd5b823567ffffffffffffffff8082111561152e57600080fd5b61153a86838701611273565b9350602085013591508082111561146257600080fd5b6000806040838503121561156357600080fd5b61156c83611049565b915061157a60208401611049565b90509250929050565b600080600080600060a0868803121561159b57600080fd5b6115a486611049565b94506115b260208701611049565b93506040860135925060608601359150608086013567ffffffffffffffff8111156115dc57600080fd5b6113a1888289016112e4565b6000602082840312156115fa57600080fd5b6110c282611049565b600181811c9082168061161757607f821691505b60208210810361163757634e487b7160e01b600052602260045260246000fd5b50919050565b6020808252602e908201527f455243313135353a2063616c6c6572206973206e6f7420746f6b656e206f776e60408201526d195c881bdc88185c1c1c9bdd995960921b606082015260800190565b634e487b7160e01b600052603260045260246000fd5b634e487b7160e01b600052601160045260246000fd5b6000600182016116c9576116c96116a1565b5060010190565b601f82111561171657600081815260208120601f850160051c810160208610156116f75750805b601f850160051c820191505b81811015610a3657828155600101611703565b505050565b815167ffffffffffffffff811115611735576117356110c9565b611749816117438454611603565b846116d0565b602080601f83116001811461177e57600084156117665750858301515b600019600386901b1c1916600185901b178555610a36565b600085815260208120601f198616915b828110156117ad5788860151825594840194600190910190840161178e565b50858210156117cb5787850151600019600388901b60f8161c191681555b5050505050600190811b01905550565b60208082526021908201527f455243313135353a206d696e7420746f20746865207a65726f206164647265736040820152607360f81b606082015260800190565b80820180821115610323576103236116a1565b60208082526028908201527f455243313135353a2069647320616e6420616d6f756e7473206c656e677468206040820152670dad2e6dac2e8c6d60c31b606082015260800190565b60208082526025908201527f455243313135353a207472616e7366657220746f20746865207a65726f206164604082015264647265737360d81b606082015260800190565b6020808252602a908201527f455243313135353a20696e73756666696369656e742062616c616e636520666f60408201526939103a3930b739b332b960b11b606082015260800190565b6040815260006119196040830185611479565b828103602084015261192b8185611479565b95945050505050565b6001600160a01b03868116825285166020820152604081018490526060810183905260a06080820181905260009061196e908301846111bb565b979650505050505050565b60006020828403121561198b57600080fd5b81516110c28161108f565b600060033d11156119af5760046000803e5060005160e01c5b90565b600060443d10156119c05790565b6040516003193d81016004833e81513d67ffffffffffffffff81602484011181841117156119f057505050505090565b8285019150815181811115611a085750505050505090565b843d8701016020828501011115611a225750505050505090565b611a31602082860101876110df565b509095945050505050565b60208082526028908201527f455243313135353a204552433131353552656365697665722072656a656374656040820152676420746f6b656e7360c01b606082015260800190565b6001600160a01b0386811682528516602082015260a060408201819052600090611ab090830186611479565b8281036060840152611ac28186611479565b90508281036080840152611ad681856111bb565b9897505050505050505056fea2646970667358221220ba380d28ed9946774259b4b3e8044728b0cbac5ff94a6bf2808a0b1e83ce8b3f64736f6c63430008110033697066733a2f2f516d57517564394e7a6d444d375948725a38584554317538636a7a3567747a555839435068476e594d35774653732f7b69647d2e6a736f6e",
    "sourcePath": "/home/user/Documents/nft-Tut/1sttryUsingWeb3/nftContract.sol",
    "compiler": {
        "name": "solc",
        "version": "0.8.17+commit.8df45f5f"
    },
    "functionHashes": {
        "balanceOf(address,uint256)": "00fdd58e",
        "balanceOfBatch(address[],uint256[])": "4e1273f4",
        "isApprovedForAll(address,address)": "e985e9c5",
        "mint(uint256,uint256)": "1b2ef1ca",
        "mintBatch(uint256[],uint256[])": "d351cfdc",
        "name()": "06fdde03",
        "owner()": "8da5cb5b",
        "renounceOwnership()": "715018a6",
        "safeBatchTransferFrom(address,address,uint256[],uint256[],bytes)": "2eb2c2d6",
        "safeTransferFrom(address,address,uint256,uint256,bytes)": "f242432a",
        "setApprovalForAll(address,bool)": "a22cb465",
        "setName(string)": "c47f0027",
        "setURI(string)": "02fe5305",
        "supportsInterface(bytes4)": "01ffc9a7",
        "transferOwnership(address)": "f2fde38b",
        "uri(uint256)": "0e89341c"
    },
    "gasEstimates": {
        "creation": {
            "codeDepositCost": "1387200",
            "executionCost": "infinite",
            "totalCost": "infinite"
        },
        "external": {
            "balanceOf(address,uint256)": "2703",
            "balanceOfBatch(address[],uint256[])": "infinite",
            "isApprovedForAll(address,address)": "infinite",
            "mint(uint256,uint256)": "infinite",
            "mintBatch(uint256[],uint256[])": "infinite",
            "name()": "infinite",
            "owner()": "2346",
            "renounceOwnership()": "infinite",
            "safeBatchTransferFrom(address,address,uint256[],uint256[],bytes)": "infinite",
            "safeTransferFrom(address,address,uint256,uint256,bytes)": "infinite",
            "setApprovalForAll(address,bool)": "26750",
            "setName(string)": "infinite",
            "setURI(string)": "infinite",
            "supportsInterface(bytes4)": "578",
            "transferOwnership(address)": "28421",
            "uri(uint256)": "infinite"
        }
    }
}