{
    "contractName": "initial",
    "abi": [
        {
            "inputs": [],
            "stateMutability": "nonpayable",
            "type": "constructor"
        },
        {
            "inputs": [],
            "name": "getMessage",
            "outputs": [
                {
                    "internalType": "string",
                    "name": "",
                    "type": "string"
                }
            ],
            "stateMutability": "view",
            "type": "function"
        },
        {
            "inputs": [],
            "name": "message",
            "outputs": [
                {
                    "internalType": "string",
                    "name": "",
                    "type": "string"
                }
            ],
            "stateMutability": "view",
            "type": "function"
        },
        {
            "inputs": [
                {
                    "internalType": "string",
                    "name": "_newMessage",
                    "type": "string"
                }
            ],
            "name": "setMessage",
            "outputs": [],
            "stateMutability": "nonpayable",
            "type": "function"
        }
    ],
    "bytecode": "608060405234801561001057600080fd5b506040518060600160405280602e81526020016105ef602e913960009061003790826100dc565b5061019b565b634e487b7160e01b600052604160045260246000fd5b600181811c9082168061006757607f821691505b60208210810361008757634e487b7160e01b600052602260045260246000fd5b50919050565b601f8211156100d757600081815260208120601f850160051c810160208610156100b45750805b601f850160051c820191505b818110156100d3578281556001016100c0565b5050505b505050565b81516001600160401b038111156100f5576100f561003d565b610109816101038454610053565b8461008d565b602080601f83116001811461013e57600084156101265750858301515b600019600386901b1c1916600185901b1785556100d3565b600085815260208120601f198616915b8281101561016d5788860151825594840194600190910190840161014e565b508582101561018b5787850151600019600388901b60f8161c191681555b5050505050600190811b01905550565b610445806101aa6000396000f3fe608060405234801561001057600080fd5b50600436106100415760003560e01c8063368b877214610046578063ce6d41de1461005b578063e21f37ce14610079575b600080fd5b6100596100543660046101c7565b610081565b005b610063610091565b6040516100709190610278565b60405180910390f35b610063610123565b600061008d828261034f565b5050565b6060600080546100a0906102c6565b80601f01602080910402602001604051908101604052809291908181526020018280546100cc906102c6565b80156101195780601f106100ee57610100808354040283529160200191610119565b820191906000526020600020905b8154815290600101906020018083116100fc57829003601f168201915b5050505050905090565b60008054610130906102c6565b80601f016020809104026020016040519081016040528092919081815260200182805461015c906102c6565b80156101a95780601f1061017e576101008083540402835291602001916101a9565b820191906000526020600020905b81548152906001019060200180831161018c57829003601f168201915b505050505081565b634e487b7160e01b600052604160045260246000fd5b6000602082840312156101d957600080fd5b813567ffffffffffffffff808211156101f157600080fd5b818401915084601f83011261020557600080fd5b813581811115610217576102176101b1565b604051601f8201601f19908116603f0116810190838211818310171561023f5761023f6101b1565b8160405282815287602084870101111561025857600080fd5b826020860160208301376000928101602001929092525095945050505050565b600060208083528351808285015260005b818110156102a557858101830151858201604001528201610289565b506000604082860101526040601f19601f8301168501019250505092915050565b600181811c908216806102da57607f821691505b6020821081036102fa57634e487b7160e01b600052602260045260246000fd5b50919050565b601f82111561034a57600081815260208120601f850160051c810160208610156103275750805b601f850160051c820191505b8181101561034657828155600101610333565b5050505b505050565b815167ffffffffffffffff811115610369576103696101b1565b61037d8161037784546102c6565b84610300565b602080601f8311600181146103b2576000841561039a5750858301515b600019600386901b1c1916600185901b178555610346565b600085815260208120601f198616915b828110156103e1578886015182559484019460019091019084016103c2565b50858210156103ff5787850151600019600388901b60f8161c191681555b5050505050600190811b0190555056fea26469706673582212206e3fe559da46004b64cf3e388066d53ea48af3066e43cc233cae7b71b2fe604a64736f6c6343000811003361736a64666b616a736b64666a6b617364666c6b6a61736466686b6a61736266616a6b736468666a6b6173646866",
    "sourcePath": "/home/user/Documents/nft-Tut/1sttryUsingWeb3/initial.sol",
    "compiler": {
        "name": "solc",
        "version": "0.8.17+commit.8df45f5f"
    },
    "functionHashes": {
        "getMessage()": "ce6d41de",
        "message()": "e21f37ce",
        "setMessage(string)": "368b8772"
    },
    "gasEstimates": {
        "creation": {
            "codeDepositCost": "218600",
            "executionCost": "infinite",
            "totalCost": "infinite"
        },
        "external": {
            "getMessage()": "infinite",
            "message()": "infinite",
            "setMessage(string)": "infinite"
        }
    }
}