{
    "contractName": "nftContract",
    "abi": [
        {
            "inputs": [
                {
                    "internalType": "string",
                    "name": "_name",
                    "type": "string"
                },
                {
                    "internalType": "string",
                    "name": "_uri",
                    "type": "string"
                }
            ],
            "stateMutability": "nonpayable",
            "type": "constructor"
        },
        {
            "anonymous": false,
            "inputs": [
                {
                    "indexed": true,
                    "internalType": "address",
                    "name": "account",
                    "type": "address"
                },
                {
                    "indexed": true,
                    "internalType": "address",
                    "name": "operator",
                    "type": "address"
                },
                {
                    "indexed": false,
                    "internalType": "bool",
                    "name": "approved",
                    "type": "bool"
                }
            ],
            "name": "ApprovalForAll",
            "type": "event"
        },
        {
            "anonymous": false,
            "inputs": [
                {
                    "indexed": true,
                    "internalType": "address",
                    "name": "previousOwner",
                    "type": "address"
                },
                {
                    "indexed": true,
                    "internalType": "address",
                    "name": "newOwner",
                    "type": "address"
                }
            ],
            "name": "OwnershipTransferred",
            "type": "event"
        },
        {
            "anonymous": false,
            "inputs": [
                {
                    "indexed": true,
                    "internalType": "address",
                    "name": "operator",
                    "type": "address"
                },
                {
                    "indexed": true,
                    "internalType": "address",
                    "name": "from",
                    "type": "address"
                },
                {
                    "indexed": true,
                    "internalType": "address",
                    "name": "to",
                    "type": "address"
                },
                {
                    "indexed": false,
                    "internalType": "uint256[]",
                    "name": "ids",
                    "type": "uint256[]"
                },
                {
                    "indexed": false,
                    "internalType": "uint256[]",
                    "name": "values",
                    "type": "uint256[]"
                }
            ],
            "name": "TransferBatch",
            "type": "event"
        },
        {
            "anonymous": false,
            "inputs": [
                {
                    "indexed": true,
                    "internalType": "address",
                    "name": "operator",
                    "type": "address"
                },
                {
                    "indexed": true,
                    "internalType": "address",
                    "name": "from",
                    "type": "address"
                },
                {
                    "indexed": true,
                    "internalType": "address",
                    "name": "to",
                    "type": "address"
                },
                {
                    "indexed": false,
                    "internalType": "uint256",
                    "name": "id",
                    "type": "uint256"
                },
                {
                    "indexed": false,
                    "internalType": "uint256",
                    "name": "value",
                    "type": "uint256"
                }
            ],
            "name": "TransferSingle",
            "type": "event"
        },
        {
            "anonymous": false,
            "inputs": [
                {
                    "indexed": false,
                    "internalType": "string",
                    "name": "value",
                    "type": "string"
                },
                {
                    "indexed": true,
                    "internalType": "uint256",
                    "name": "id",
                    "type": "uint256"
                }
            ],
            "name": "URI",
            "type": "event"
        },
        {
            "inputs": [
                {
                    "internalType": "address",
                    "name": "account",
                    "type": "address"
                },
                {
                    "internalType": "uint256",
                    "name": "id",
                    "type": "uint256"
                }
            ],
            "name": "balanceOf",
            "outputs": [
                {
                    "internalType": "uint256",
                    "name": "",
                    "type": "uint256"
                }
            ],
            "stateMutability": "view",
            "type": "function"
        },
        {
            "inputs": [
                {
                    "internalType": "address[]",
                    "name": "accounts",
                    "type": "address[]"
                },
                {
                    "internalType": "uint256[]",
                    "name": "ids",
                    "type": "uint256[]"
                }
            ],
            "name": "balanceOfBatch",
            "outputs": [
                {
                    "internalType": "uint256[]",
                    "name": "",
                    "type": "uint256[]"
                }
            ],
            "stateMutability": "view",
            "type": "function"
        },
        {
            "inputs": [
                {
                    "internalType": "address",
                    "name": "account",
                    "type": "address"
                },
                {
                    "internalType": "address",
                    "name": "operator",
                    "type": "address"
                }
            ],
            "name": "isApprovedForAll",
            "outputs": [
                {
                    "internalType": "bool",
                    "name": "",
                    "type": "bool"
                }
            ],
            "stateMutability": "view",
            "type": "function"
        },
        {
            "inputs": [
                {
                    "internalType": "uint256[]",
                    "name": "ids",
                    "type": "uint256[]"
                },
                {
                    "internalType": "uint256[]",
                    "name": "amounts",
                    "type": "uint256[]"
                }
            ],
            "name": "mintBatch",
            "outputs": [],
            "stateMutability": "nonpayable",
            "type": "function"
        },
        {
            "inputs": [],
            "name": "name",
            "outputs": [
                {
                    "internalType": "string",
                    "name": "",
                    "type": "string"
                }
            ],
            "stateMutability": "view",
            "type": "function"
        },
        {
            "inputs": [],
            "name": "owner",
            "outputs": [
                {
                    "internalType": "address",
                    "name": "",
                    "type": "address"
                }
            ],
            "stateMutability": "view",
            "type": "function"
        },
        {
            "inputs": [],
            "name": "renounceOwnership",
            "outputs": [],
            "stateMutability": "nonpayable",
            "type": "function"
        },
        {
            "inputs": [
                {
                    "internalType": "address",
                    "name": "from",
                    "type": "address"
                },
                {
                    "internalType": "address",
                    "name": "to",
                    "type": "address"
                },
                {
                    "internalType": "uint256[]",
                    "name": "ids",
                    "type": "uint256[]"
                },
                {
                    "internalType": "uint256[]",
                    "name": "amounts",
                    "type": "uint256[]"
                },
                {
                    "internalType": "bytes",
                    "name": "data",
                    "type": "bytes"
                }
            ],
            "name": "safeBatchTransferFrom",
            "outputs": [],
            "stateMutability": "nonpayable",
            "type": "function"
        },
        {
            "inputs": [
                {
                    "internalType": "address",
                    "name": "from",
                    "type": "address"
                },
                {
                    "internalType": "address",
                    "name": "to",
                    "type": "address"
                },
                {
                    "internalType": "uint256",
                    "name": "id",
                    "type": "uint256"
                },
                {
                    "internalType": "uint256",
                    "name": "amount",
                    "type": "uint256"
                },
                {
                    "internalType": "bytes",
                    "name": "data",
                    "type": "bytes"
                }
            ],
            "name": "safeTransferFrom",
            "outputs": [],
            "stateMutability": "nonpayable",
            "type": "function"
        },
        {
            "inputs": [
                {
                    "internalType": "address",
                    "name": "operator",
                    "type": "address"
                },
                {
                    "internalType": "bool",
                    "name": "approved",
                    "type": "bool"
                }
            ],
            "name": "setApprovalForAll",
            "outputs": [],
            "stateMutability": "nonpayable",
            "type": "function"
        },
        {
            "inputs": [
                {
                    "internalType": "string",
                    "name": "_newuri",
                    "type": "string"
                }
            ],
            "name": "setURI",
            "outputs": [],
            "stateMutability": "nonpayable",
            "type": "function"
        },
        {
            "inputs": [
                {
                    "internalType": "bytes4",
                    "name": "interfaceId",
                    "type": "bytes4"
                }
            ],
            "name": "supportsInterface",
            "outputs": [
                {
                    "internalType": "bool",
                    "name": "",
                    "type": "bool"
                }
            ],
            "stateMutability": "view",
            "type": "function"
        },
        {
            "inputs": [
                {
                    "internalType": "address",
                    "name": "newOwner",
                    "type": "address"
                }
            ],
            "name": "transferOwnership",
            "outputs": [],
            "stateMutability": "nonpayable",
            "type": "function"
        },
        {
            "inputs": [
                {
                    "internalType": "uint256",
                    "name": "",
                    "type": "uint256"
                }
            ],
            "name": "uri",
            "outputs": [
                {
                    "internalType": "string",
                    "name": "",
                    "type": "string"
                }
            ],
            "stateMutability": "view",
            "type": "function"
        }
    ],
    "bytecode": "60806040523480156200001157600080fd5b5060405162001d0838038062001d0883398101604081905262000034916200018a565b80620000403362000063565b6200004b81620000b3565b5060046200005a838262000283565b5050506200034f565b600080546001600160a01b038381166001600160a01b0319831681178455604051919092169283917f8be0079c531659141344cd1fd0a4f28419497f9722a3daafe3b4186f6b6457e09190a35050565b6003620000c1828262000283565b5050565b634e487b7160e01b600052604160045260246000fd5b600082601f830112620000ed57600080fd5b81516001600160401b03808211156200010a576200010a620000c5565b604051601f8301601f19908116603f01168101908282118183101715620001355762000135620000c5565b816040528381526020925086838588010111156200015257600080fd5b600091505b8382101562000176578582018301518183018401529082019062000157565b600093810190920192909252949350505050565b600080604083850312156200019e57600080fd5b82516001600160401b0380821115620001b657600080fd5b620001c486838701620000db565b93506020850151915080821115620001db57600080fd5b50620001ea85828601620000db565b9150509250929050565b600181811c908216806200020957607f821691505b6020821081036200022a57634e487b7160e01b600052602260045260246000fd5b50919050565b601f8211156200027e57600081815260208120601f850160051c81016020861015620002595750805b601f850160051c820191505b818110156200027a5782815560010162000265565b5050505b505050565b81516001600160401b038111156200029f576200029f620000c5565b620002b781620002b08454620001f4565b8462000230565b602080601f831160018114620002ef5760008415620002d65750858301515b600019600386901b1c1916600185901b1785556200027a565b600085815260208120601f198616915b828110156200032057888601518255948401946001909101908401620002ff565b50858210156200033f5787850151600019600388901b60f8161c191681555b5050505050600190811b01905550565b6119a9806200035f6000396000f3fe608060405234801561001057600080fd5b50600436106100e95760003560e01c8063715018a61161008c578063d351cfdc11610066578063d351cfdc146101dd578063e985e9c5146101f0578063f242432a1461022c578063f2fde38b1461023f57600080fd5b8063715018a6146101a75780638da5cb5b146101af578063a22cb465146101ca57600080fd5b806306fdde03116100c857806306fdde031461014c5780630e89341c146101615780632eb2c2d6146101745780634e1273f41461018757600080fd5b8062fdd58e146100ee57806301ffc9a71461011457806302fe530514610137575b600080fd5b6101016100fc366004610f59565b610252565b6040519081526020015b60405180910390f35b610127610122366004610f99565b6102ed565b604051901515815260200161010b565b61014a61014536600461105e565b61033d565b005b610154610351565b60405161010b91906110f5565b61015461016f366004611108565b6103df565b61014a6101823660046111d6565b610473565b61019a610195366004611280565b6104bf565b60405161010b9190611386565b61014a6105e9565b6000546040516001600160a01b03909116815260200161010b565b61014a6101d8366004611399565b6105fd565b61014a6101eb3660046113d5565b61060c565b6101276101fe366004611422565b6001600160a01b03918216600090815260026020908152604080832093909416825291909152205460ff1690565b61014a61023a366004611455565b61062f565b61014a61024d3660046114ba565b610674565b60006001600160a01b0383166102c25760405162461bcd60e51b815260206004820152602a60248201527f455243313135353a2061646472657373207a65726f206973206e6f742061207660448201526930b634b21037bbb732b960b11b60648201526084015b60405180910390fd5b5060008181526001602090815260408083206001600160a01b03861684529091529020545b92915050565b60006001600160e01b03198216636cdb3d1360e11b148061031e57506001600160e01b031982166303a24d0760e21b145b806102e757506301ffc9a760e01b6001600160e01b03198316146102e7565b6103456106ea565b61034e81610744565b50565b6004805461035e906114d5565b80601f016020809104026020016040519081016040528092919081815260200182805461038a906114d5565b80156103d75780601f106103ac576101008083540402835291602001916103d7565b820191906000526020600020905b8154815290600101906020018083116103ba57829003601f168201915b505050505081565b6060600380546103ee906114d5565b80601f016020809104026020016040519081016040528092919081815260200182805461041a906114d5565b80156104675780601f1061043c57610100808354040283529160200191610467565b820191906000526020600020905b81548152906001019060200180831161044a57829003601f168201915b50505050509050919050565b6001600160a01b03851633148061048f575061048f85336101fe565b6104ab5760405162461bcd60e51b81526004016102b99061150f565b6104b88585858585610750565b5050505050565b606081518351146105245760405162461bcd60e51b815260206004820152602960248201527f455243313135353a206163636f756e747320616e6420696473206c656e677468604482015268040dad2e6dac2e8c6d60bb1b60648201526084016102b9565b6000835167ffffffffffffffff81111561054057610540610fbd565b604051908082528060200260200182016040528015610569578160200160208202803683370190505b50905060005b84518110156105e1576105b485828151811061058d5761058d61155d565b60200260200101518583815181106105a7576105a761155d565b6020026020010151610252565b8282815181106105c6576105c661155d565b60209081029190910101526105da81611589565b905061056f565b509392505050565b6105f16106ea565b6105fb60006108ef565b565b61060833838361093f565b5050565b6106146106ea565b61060833838360405180602001604052806000815250610a1f565b6001600160a01b03851633148061064b575061064b85336101fe565b6106675760405162461bcd60e51b81526004016102b99061150f565b6104b88585858585610ba5565b61067c6106ea565b6001600160a01b0381166106e15760405162461bcd60e51b815260206004820152602660248201527f4f776e61626c653a206e6577206f776e657220697320746865207a65726f206160448201526564647265737360d01b60648201526084016102b9565b61034e816108ef565b6000546001600160a01b031633146105fb5760405162461bcd60e51b815260206004820181905260248201527f4f776e61626c653a2063616c6c6572206973206e6f7420746865206f776e657260448201526064016102b9565b600361060882826115ed565b81518351146107715760405162461bcd60e51b81526004016102b9906116ad565b6001600160a01b0384166107975760405162461bcd60e51b81526004016102b9906116f5565b3360005b84518110156108815760008582815181106107b8576107b861155d565b6020026020010151905060008583815181106107d6576107d661155d565b60209081029190910181015160008481526001835260408082206001600160a01b038e1683529093529190912054909150818110156108275760405162461bcd60e51b81526004016102b99061173a565b60008381526001602090815260408083206001600160a01b038e8116855292528083208585039055908b16825281208054849290610866908490611784565b925050819055505050508061087a90611589565b905061079b565b50846001600160a01b0316866001600160a01b0316826001600160a01b03167f4a39dc06d4c0dbc64b70af90fd698a233a518aa5d07e595d983b8c0526c8f7fb87876040516108d1929190611797565b60405180910390a46108e7818787878787610cd3565b505050505050565b600080546001600160a01b038381166001600160a01b0319831681178455604051919092169283917f8be0079c531659141344cd1fd0a4f28419497f9722a3daafe3b4186f6b6457e09190a35050565b816001600160a01b0316836001600160a01b0316036109b25760405162461bcd60e51b815260206004820152602960248201527f455243313135353a2073657474696e6720617070726f76616c20737461747573604482015268103337b91039b2b63360b91b60648201526084016102b9565b6001600160a01b03838116600081815260026020908152604080832094871680845294825291829020805460ff191686151590811790915591519182527f17307eab39ab6107e8899845ad3d59bd9653f200f220920489ca2b5937696c31910160405180910390a3505050565b6001600160a01b038416610a7f5760405162461bcd60e51b815260206004820152602160248201527f455243313135353a206d696e7420746f20746865207a65726f206164647265736044820152607360f81b60648201526084016102b9565b8151835114610aa05760405162461bcd60e51b81526004016102b9906116ad565b3360005b8451811015610b3d57838181518110610abf57610abf61155d565b602002602001015160016000878481518110610add57610add61155d565b602002602001015181526020019081526020016000206000886001600160a01b03166001600160a01b031681526020019081526020016000206000828254610b259190611784565b90915550819050610b3581611589565b915050610aa4565b50846001600160a01b031660006001600160a01b0316826001600160a01b03167f4a39dc06d4c0dbc64b70af90fd698a233a518aa5d07e595d983b8c0526c8f7fb8787604051610b8e929190611797565b60405180910390a46104b881600087878787610cd3565b6001600160a01b038416610bcb5760405162461bcd60e51b81526004016102b9906116f5565b336000610bd785610e37565b90506000610be485610e37565b905060008681526001602090815260408083206001600160a01b038c16845290915290205485811015610c295760405162461bcd60e51b81526004016102b99061173a565b60008781526001602090815260408083206001600160a01b038d8116855292528083208985039055908a16825281208054889290610c68908490611784565b909155505060408051888152602081018890526001600160a01b03808b16928c821692918816917fc3d58168c5ae7397731d063d5bbf3d657854427343f4c083240f7aacaa2d0f62910160405180910390a4610cc8848a8a8a8a8a610e82565b505050505050505050565b6001600160a01b0384163b156108e75760405163bc197c8160e01b81526001600160a01b0385169063bc197c8190610d1790899089908890889088906004016117c5565b6020604051808303816000875af1925050508015610d52575060408051601f3d908101601f19168201909252610d4f91810190611823565b60015b610dfe57610d5e611840565b806308c379a003610d975750610d7261185c565b80610d7d5750610d99565b8060405162461bcd60e51b81526004016102b991906110f5565b505b60405162461bcd60e51b815260206004820152603460248201527f455243313135353a207472616e7366657220746f206e6f6e2d455243313135356044820152732932b1b2b4bb32b91034b6b83632b6b2b73a32b960611b60648201526084016102b9565b6001600160e01b0319811663bc197c8160e01b14610e2e5760405162461bcd60e51b81526004016102b9906118e6565b50505050505050565b60408051600180825281830190925260609160009190602080830190803683370190505090508281600081518110610e7157610e7161155d565b602090810291909101015292915050565b6001600160a01b0384163b156108e75760405163f23a6e6160e01b81526001600160a01b0385169063f23a6e6190610ec6908990899088908890889060040161192e565b6020604051808303816000875af1925050508015610f01575060408051601f3d908101601f19168201909252610efe91810190611823565b60015b610f0d57610d5e611840565b6001600160e01b0319811663f23a6e6160e01b14610e2e5760405162461bcd60e51b81526004016102b9906118e6565b80356001600160a01b0381168114610f5457600080fd5b919050565b60008060408385031215610f6c57600080fd5b610f7583610f3d565b946020939093013593505050565b6001600160e01b03198116811461034e57600080fd5b600060208284031215610fab57600080fd5b8135610fb681610f83565b9392505050565b634e487b7160e01b600052604160045260246000fd5b601f8201601f1916810167ffffffffffffffff81118282101715610ff957610ff9610fbd565b6040525050565b600067ffffffffffffffff83111561101a5761101a610fbd565b604051611031601f8501601f191660200182610fd3565b80915083815284848401111561104657600080fd5b83836020830137600060208583010152509392505050565b60006020828403121561107057600080fd5b813567ffffffffffffffff81111561108757600080fd5b8201601f8101841361109857600080fd5b6110a784823560208401611000565b949350505050565b6000815180845260005b818110156110d5576020818501810151868301820152016110b9565b506000602082860101526020601f19601f83011685010191505092915050565b602081526000610fb660208301846110af565b60006020828403121561111a57600080fd5b5035919050565b600067ffffffffffffffff82111561113b5761113b610fbd565b5060051b60200190565b600082601f83011261115657600080fd5b8135602061116382611121565b6040516111708282610fd3565b83815260059390931b850182019282810191508684111561119057600080fd5b8286015b848110156111ab5780358352918301918301611194565b509695505050505050565b600082601f8301126111c757600080fd5b610fb683833560208501611000565b600080600080600060a086880312156111ee57600080fd5b6111f786610f3d565b945061120560208701610f3d565b9350604086013567ffffffffffffffff8082111561122257600080fd5b61122e89838a01611145565b9450606088013591508082111561124457600080fd5b61125089838a01611145565b9350608088013591508082111561126657600080fd5b50611273888289016111b6565b9150509295509295909350565b6000806040838503121561129357600080fd5b823567ffffffffffffffff808211156112ab57600080fd5b818501915085601f8301126112bf57600080fd5b813560206112cc82611121565b6040516112d98282610fd3565b83815260059390931b85018201928281019150898411156112f957600080fd5b948201945b8386101561131e5761130f86610f3d565b825294820194908201906112fe565b9650508601359250508082111561133457600080fd5b5061134185828601611145565b9150509250929050565b600081518084526020808501945080840160005b8381101561137b5781518752958201959082019060010161135f565b509495945050505050565b602081526000610fb6602083018461134b565b600080604083850312156113ac57600080fd5b6113b583610f3d565b9150602083013580151581146113ca57600080fd5b809150509250929050565b600080604083850312156113e857600080fd5b823567ffffffffffffffff8082111561140057600080fd5b61140c86838701611145565b9350602085013591508082111561133457600080fd5b6000806040838503121561143557600080fd5b61143e83610f3d565b915061144c60208401610f3d565b90509250929050565b600080600080600060a0868803121561146d57600080fd5b61147686610f3d565b945061148460208701610f3d565b93506040860135925060608601359150608086013567ffffffffffffffff8111156114ae57600080fd5b611273888289016111b6565b6000602082840312156114cc57600080fd5b610fb682610f3d565b600181811c908216806114e957607f821691505b60208210810361150957634e487b7160e01b600052602260045260246000fd5b50919050565b6020808252602e908201527f455243313135353a2063616c6c6572206973206e6f7420746f6b656e206f776e60408201526d195c881bdc88185c1c1c9bdd995960921b606082015260800190565b634e487b7160e01b600052603260045260246000fd5b634e487b7160e01b600052601160045260246000fd5b60006001820161159b5761159b611573565b5060010190565b601f8211156115e857600081815260208120601f850160051c810160208610156115c95750805b601f850160051c820191505b818110156108e7578281556001016115d5565b505050565b815167ffffffffffffffff81111561160757611607610fbd565b61161b8161161584546114d5565b846115a2565b602080601f83116001811461165057600084156116385750858301515b600019600386901b1c1916600185901b1785556108e7565b600085815260208120601f198616915b8281101561167f57888601518255948401946001909101908401611660565b508582101561169d5787850151600019600388901b60f8161c191681555b5050505050600190811b01905550565b60208082526028908201527f455243313135353a2069647320616e6420616d6f756e7473206c656e677468206040820152670dad2e6dac2e8c6d60c31b606082015260800190565b60208082526025908201527f455243313135353a207472616e7366657220746f20746865207a65726f206164604082015264647265737360d81b606082015260800190565b6020808252602a908201527f455243313135353a20696e73756666696369656e742062616c616e636520666f60408201526939103a3930b739b332b960b11b606082015260800190565b808201808211156102e7576102e7611573565b6040815260006117aa604083018561134b565b82810360208401526117bc818561134b565b95945050505050565b6001600160a01b0386811682528516602082015260a0604082018190526000906117f19083018661134b565b8281036060840152611803818661134b565b9050828103608084015261181781856110af565b98975050505050505050565b60006020828403121561183557600080fd5b8151610fb681610f83565b600060033d11156118595760046000803e5060005160e01c5b90565b600060443d101561186a5790565b6040516003193d81016004833e81513d67ffffffffffffffff816024840111818411171561189a57505050505090565b82850191508151818111156118b25750505050505090565b843d87010160208285010111156118cc5750505050505090565b6118db60208286010187610fd3565b509095945050505050565b60208082526028908201527f455243313135353a204552433131353552656365697665722072656a656374656040820152676420746f6b656e7360c01b606082015260800190565b6001600160a01b03868116825285166020820152604081018490526060810183905260a060808201819052600090611968908301846110af565b97965050505050505056fea264697066735822122059c6ff74dbab8aa4da9d3c4c1bc44210651f412369dd8ebaad00f56431449acc64736f6c63430008110033",
    "sourcePath": "/home/user/Documents/nft-Tut/1sttryUsingWeb3/nftContract.sol",
    "compiler": {
        "name": "solc",
        "version": "0.8.17+commit.8df45f5f"
    },
    "functionHashes": {
        "balanceOf(address,uint256)": "00fdd58e",
        "balanceOfBatch(address[],uint256[])": "4e1273f4",
        "isApprovedForAll(address,address)": "e985e9c5",
        "mintBatch(uint256[],uint256[])": "d351cfdc",
        "name()": "06fdde03",
        "owner()": "8da5cb5b",
        "renounceOwnership()": "715018a6",
        "safeBatchTransferFrom(address,address,uint256[],uint256[],bytes)": "2eb2c2d6",
        "safeTransferFrom(address,address,uint256,uint256,bytes)": "f242432a",
        "setApprovalForAll(address,bool)": "a22cb465",
        "setURI(string)": "02fe5305",
        "supportsInterface(bytes4)": "01ffc9a7",
        "transferOwnership(address)": "f2fde38b",
        "uri(uint256)": "0e89341c"
    },
    "gasEstimates": {
        "creation": {
            "codeDepositCost": "1313800",
            "executionCost": "infinite",
            "totalCost": "infinite"
        },
        "external": {
            "balanceOf(address,uint256)": "2703",
            "balanceOfBatch(address[],uint256[])": "infinite",
            "isApprovedForAll(address,address)": "infinite",
            "mintBatch(uint256[],uint256[])": "infinite",
            "name()": "infinite",
            "owner()": "2346",
            "renounceOwnership()": "infinite",
            "safeBatchTransferFrom(address,address,uint256[],uint256[],bytes)": "infinite",
            "safeTransferFrom(address,address,uint256,uint256,bytes)": "infinite",
            "setApprovalForAll(address,bool)": "26750",
            "setURI(string)": "infinite",
            "supportsInterface(bytes4)": "578",
            "transferOwnership(address)": "28421",
            "uri(uint256)": "infinite"
        }
    }
}